:060000000A128A110C280F
:10000800FE00030EF0000A08F1000A168A11362CC9
:100018000A128A110F288313B930FD001230FE002E
:100028001530FF00A03084000A168A11F1210A1247
:100038008A116C30FD001130FE003830FF00663048
:1000480084000A168A11F1210A128A11B930840033
:10005800D1300A168A1145210A128A1120308400EB
:1000680045300A168A1145210A128A11FA01FB0144
:1000780083010A128A114028013083160313D8001D
:100088003608D2003708D3003808D400D5010A163C
:100098008A11A8240A128A11CD30F7008830F80096
:1000A80000300A168A11F9220A128A11D2308312F4
:1000B8000313C6000030C700C8010A168A11432777
:1000C8000A128A110A30F6000030F7000A168A115F
:1000D800C8210A128A117308F9007208F8000A1672
:1000E8008A1165250A128A11760883160313D70028
:1000F80064305702031C8128822884286330D70083
:100108000A128A114A260A128A1183160313D90081
:100118003E305906031D91289228AF28D230F200AC
:10012800E730F3008830F4000A168A118D220A128B
:100138008A11D23083120313C6000030C700831619
:100148000313570883120313C8000A168A1143279A
:100158000A128A11612B3D305906031DB428B528AF
:10016800E628063055020318BA28BB28E628D230FC
:10017800F200550883120313E3006307A03E8400CE
:1001880083130008F300840A00088403F4000A16A5
:100198008A118D220A128A11013083160313D5079A
:1001A800D23083120313C6000030C700831603132E
:1001B800570883120313C8000A168A1143270A1224
:1001C8008A11612B3B305906031DEB28EC280929BD
:1001D80055080319F028F12809290130D502D23031
:1001E800F200550883120313E3006307A03E84005E
:1001F80083130008F300840A00088403F4000A1635
:100208008A118D220A128A11D42837305906031907
:100218000E290F2915292F305906031D14291529D0
:1002280049295803031D19291A2949290A168A1127
:10023800A5210A128A111430F6008830F7008030A0
:10024800F8000A168A11A5230A128A11F201C6308B
:100258000A168A114C220A128A11F2010F300A1664
:100268008A114C220A128A11A53083120313E30063
:10027800E30B3C293F29023083160313D800603072
:10028800D600831203131215612B80305906031D03
:100298004E294F29F72903305806031D542955299B
:1002A800F729E6290A168A11A5210A128A11F230BD
:1002B800F6008730F7008030F8000A168A11A52367
:1002C8000A128A11083083160313D8002030D6008A
:1002D800612B0A168A11A5210A128A110930831680
:1002E8000313D8004030D600612B0A168A11A521C5
:1002F8000A128A11E13083120313C6008830C7003E
:1003080083160313570883120313C8000A168A11A9
:1003180043270A128A11E130F6008730F70080304F
:10032800F8000A168A11A5230A128A110330F6006A
:100338008830F700C030F8000A168A11A5230A127F
:100348008A110A128A1566220A128A113330831218
:100358000313E500BB30E400DF30E300E30BB22910
:10036800E40BB229E50BB229033083160313D80036
:100378005030D600612B0A168A11A5210A128A115B
:10038800113083160313D80043290A168A11A521B0
:100398000A128A11F03083120313C6008830C7008E
:1003A80083160313570883120313C8000A168A1109
:1003B80043270A128A11123083160313D8003030EB
:1003C800D600612B5108003A03195629013A03193E
:1003D8006D29033A03197929013A0319BF29073A04
:1003E8000319C929612B80305906031DFC29FD29F1
:1003F8000B2A08305806031D022A032A0B2A033049
:10040800D8000A168A11A5210A128A11612B803098
:100418005906031D102A112A182A11305806031DDF
:10042800162A172A182A032A90305906031D1D2A4E
:100438001E2A272A03305806031D232A242A272A7E
:100448000130D800052A612BD23083120313CF0064
:1004580083160313570883120313D0000A168A1150
:1004680041260A128A117A2B013083160313D80009
:10047800831203131211F2010C300A168A114C224E
:100488000A128A11A53083120313E300E30B4A2AE8
:100498004D2A7A2B033083160313D8007030D60008
:1004A800831203131215F2010C300A168A114C221A
:1004B8000A128A11A53083120313E300E30B622AA0
:1004C800652A6628560883120313CF008316031380
:1004D80059080A128A155F260A128A110A3A03195C
:1004E800382A013A03194E2A7A2B0A168A11A521AD
:1004F8000A128A11013083160313D80083120313DA
:1005080012117A2B83160313D1017A2B013083162B
:100518000313D1007A2B023083160313D1007A2BF0
:10052800033083160313D1007A2B04308316031388
:10053800D1007A2B560883120313CF0083160313B6
:1005480059080A128A15AF210A128A11003A0319AA
:10055800862A013A03198A2A033A03198F2A013A8B
:100568000319942A073A0319992A0E3A0319792A82
:100578007A2B560883120313CF00831603135908E6
:100588000A128A1582230A128A117A2B56080A1629
:100598008A114F230A128A110C3A031DD42AD52A2C
:1005A800E42A1A3083120313E5005E30E4006D304C
:1005B800E300E30BDD2AE40BDD2AE50BDD2AE42A60
:1005C8004030831603135606031DEB2AEC2AFD2A36
:1005D800DE3083120313C6008830C7008316031366
:1005E800570883120313C8000A168A1143270A12F0
:1005F8008A11033083160313D8005030D6000A1628
:100608008A11A5210A128A117A2B1A308312031330
:10061800E5005E30E4006D30E300E30B112BE40BE2
:10062800112BE50B112B182BEA3083120313C6008C
:100638008830C70083160313570883120313C800B2
:100648000A168A1143270A128A11FD2A01308316D5
:100658000313D8005030D6007A2B560883120313A0
:10066800CF008316031359080A128A15C2240A12E6
:100678008A110A3A03192A2B063A0319092B7A2BED
:10068800560883120313CF008316031359080A125E
:100698008A1182230A128A110C3A031D542B552BF6
:1006A8007A2B033083160313D8005030D6000A166D
:1006B8008A11A5210A128A1166288316031358087D
:1006C800013A0319282A033A0319662A013A031939
:1006D8009E2A0B3A0319BD2A013A0319CA2A183A65
:1006E8000319312B033A0319442B7A2B80308316D4
:1006F8000313D60066280A128A110C2883120313E2
:10070800D30030304F06031D8A2B8B2B022C0A1680
:100718008A11F4250A128A110F30831203133F0538
:10072800D0003E080F39D100D2015108F20052081A
:10073800F3000A30F4000030F5000A168A11AE22E0
:100748000A128A118312031350087207A00000309E
:10075800031801307307A1000F304105D00040088D
:100768000F39D100D2015108F2005208F3000A30C3
:10077800F4000030F5000A168A11AE220A128A1116
:100788008312031350087207A200003003180130C7
:100798007307A3000F304305D00042080F39D1007A
:1007A800D2015108F2005208F3000A30F400003078
:1007B800F5000A168A11AE220A128A11831203134F
:1007C80050087207A4000030031801307307A50011
:1007D8002530F6008830F7008030F8000A168A11B4
:1007E800A5230A128A11023083120313AD000030C8
:1007F800AE00BA01B901B8013F30D3003808031977
:10080800062C072C182D0D30492E2D08D000500726
:10081800203E8400013083138007840A0318800A6D
:10082800232D0330C8000030C9002D08013ECA003E
:100838002E080318013E003ECB000A168A116E24CA
:100848000A128A11831203134908AE004808AD0042
:10085800232D0A168A11F4250A128A110A308312E6
:100868000313C8000030C9002108CB002008CA00C3
:100878000A168A116E240A128A1183120313480871
:10088800D0004908D1000A30F6000030F7002108EE
:10089800F9002008F8000A168A1165250A128A113B
:1008A800760883120313D20003300310D20DFF3EE3
:1008B800031D592C0310520D5004D4002608C039CA
:1008C8005404A6002608F30002300A168A112E22C4
:1008D8000A128A110A3083120313C8000030C900B3
:1008E8002308CB002208CA000A168A116E240A12AD
:1008F8008A11831203134808D0004908D1000A302E
:10090800F6000030F7002308F9002208F8000A165C
:100918008A1165250A128A11760883120313D200F8
:1009280003300310D20DFF3E031D952C0310520D0A
:100938005004D400270880395404A7002708F3007E
:1009480001300A168A112E220A128A110A308312DD
:100958000313C8000030C9002508CB002408CA00CA
:100968000A168A116E240A128A1183120313480880
:10097800D0004908D1000A30F6000030F7002508F9
:10098800F9002408F8000A168A1165250A128A1146
:10099800760883120313D20003300310D20DFF3EF2
:1009A800031DD12C0310520D5004D400280880399F
:1009B8005404A8002808F30000300A168A112E22D1
:1009C8000A128A11F20101300A168A114C220A12FF
:1009D8008A116230F6008830F7008230F8000A1673
:1009E8008A11A5230A128A118930F6008830F70087
:1009F800C230F8000A168A11A5230A128A1101309A
:100A080083120313B8001A3083120313D2005E3026
:100A1800D1006D30D000D00B0F2DD10B0F2DD20B84
:100A28000F2D162D0C30492E53082F3A0319152C6B
:100A3800183A0319092CB73A03192D2C232D003025
:100A48002102183003192002031C2B2D2C2D2E2DCA
:100A5800A001A101003023023C3003192202031C2B
:100A6800362D372D392DA201A301003025023C3047
:100A780003192402031C412D422D442DA401A50174
:100A88000130BA0702303A06031D4B2D4C2D9E2D1E
:100A9800BA0139080319512D532D0130542D003056
:100AA800B90039080319592D5A2D9E2D8E2D333032
:100AB800F6008730F700C030F8000A168A11A5231F
:100AC8000A128A11053083120313D2000F30D100A5
:100AD800F030D000D00B6E2DD10B6E2DD20B6E2DB9
:100AE80000009E2D3330F6008730F700C330F80041
:100AF8000A168A11A5230A128A11662D3330F600C8
:100B08008730F700C630F8000A168A11A5230A12A2
:100B18008A11662D2E08003A0319932D9E2D2D0853
:100B2800003A03195B2D013A0319762D033A03198C
:100B3800822D9E2DC03083120313CD000A30F6009B
:100B48000030F7002108F9002008F8000A168A1179
:100B580065250A128A117608303E0A168A11002283
:100B68000A128A11C13083120313CD000A30C8005B
:100B78000030C9002108CB002008CA000A168A11D3
:100B88006E240A128A11831203134808303E0A168B
:100B98008A1100220A128A11C23083120313CD006F
:100BA8003A300A168A1100220A128A11C3308312B7
:100BB8000313CD000A30F6000030F7002308F900CF
:100BC8002208F8000A168A1165250A128A11760881
:100BD800303E0A168A1100220A128A11C430831282
:100BE8000313CD000A30C8000030C9002308CB0029
:100BF8002208CA000A168A116E240A128A11831260
:100C080003134808303E0A168A1100220A128A1174
:100C1800C53083120313CD003A300A168A11002218
:100C28000A128A11C63083120313CD000A30F60067
:100C38000030F7002508F9002408F8000A168A1180
:100C480065250A128A117608303E0A168A11002292
:100C58000A128A11C73083120313CD000A30C80064
:100C68000030C9002508CB002408CA000A168A11DA
:100C78006E240A128A11831203134808303E0A169A
:100C88008A1100220A128A11072C08008312031302
:100C98000608F2003F30F2053F3072060319552E60
:100CA800562E622E7A08031D5A2E5B2E622E0130B4
:100CB800FA00AB01AC017208B7007F2E3F30720614
:100CC800031D672E682E7F2E7A03031D6C2E6D2E52
:100CD8007F2EFA012C08803AFF0080307F02031D26
:100CE800772E0F302B0203187A2E7B2E7F2E83123D
:100CF80003133708D52E7A03031D832E842E9C2ECA
:100D0800831203132C08803AFF0080307F02031DF2
:100D18008F2E10302B020318922E932E9C2E01300A
:100D280083120313AB070318AC0A0030AC07D42EA8
:100D38007A03031DA02EA12EB82E103083120313A0
:100D48002B062C04031DA92EAA2EB82E37307206A6
:100D5800031DAF2EB02EB82E0130AB070318AC0A16
:100D68000030AC078030D52E7A03031DBC2EBD2E73
:100D7800D42E1030831203132B062C04031DC52E0A
:100D8800C62ED42E2F307206031DCB2ECC2ED42E79
:100D98000130AB070318AC0A0030AC079030D52EF1
:100DA8003F300800F6000A168A114D210A128A11EE
:100DB800A0300A168A115F210A128A1176080A16CB
:100DC8008A115F210A128A1173080A168A115F2193
:100DD8000A128A110A168A1156210A128A11143027
:100DE800F5007930F400F40BF72EF50BF72EFC2EF6
:020DF8000800F1
:100E000023342034203420342034203454346934C2
:100E10006D346534203420342034203420342034A0
:100E2000203420344534763465346E3474342034C0
:100E3000203420342034203420342034533470348F
:100E40006534653464340034203420342034203454
:100E500020342034203420342034203420342034F2
:100E60002034203420342034203400344E346F3485
:100E700020346C346F346734733420346134763406
:100E8000613469346C34613462346C3465340034F8
:100E900020342034203420344E346F3420346C34E9
:100EA0006F346734733420342034203420342034B9
:100EB000003445346E3474346534723420346E3406
:100EC0006534773420347034773464343A342034E1
:100ED000203400342034573472346F346E34673425
:100EE0002034503461347334733477346F34723453
:100EF00064342034003420342034543449344D34A4
:100F000045342034203420342034203445342034F7
:100F100020345334503400345034613473347334D7
:100F200077346F3472346434203463346834613419
:100F30006E34673465346434003459346F34753436
:100F400020344134723465342034203442346C34DB
:100F50006F3463346B346534643400345234653434
:100F60002D3465346E3474346534723420346E3408
:100F7000653477342034703477346434003450343A
:100F800061347334733477346F347234643420349E
:100F900020346334683461346E346734653400342B
:100FA0005734613469347434203466346F347234A5
:100FB0002E342E342E34313435346D3469346E345D
:100FC00000342034203420342034203420344F3472
:100FD000703465346E34203420342034203420348E
:100FE0002034003420342034203420342034203481
:100FF0004C346F346734733420342034203420343C
:101000002034203400342034203420342034203460
:10101000433475347434653463346F346D34203440
:101020002034203420340034203445346E34743479
:10103000653472342034503461347334733477340B
:101040006F347234643420340034543469346D3471
:10105000653420342834483448343A344D344D34DF
:101060003A34533453342934003420344134743402
:10107000743465346D3470347434203452346534CF
:101080006D34613469346E3400344334683461340F
:101090006E3467346534203470346134733473349F
:1010A00077347234643400347334753463346334A5
:1010B000653473347334663475346C346C34793419
:1010C00020340034543469346D346534203463344E
:1010D000683461346E3467346534643400344C34BD
:1010E0006F3467347334203463346C346534613462
:1010F000723465346434003444346F3477346E347D
:101100006C346F346134643420346C346F3467343D
:101110000034533475346334633465347334733456
:10112000663475346C346C3479340034733475340B
:1011300063346334653473347334663475346C34B7
:101140006C347934003443346C3465346134723433
:1011500020346C346F346734003453346534743461
:101160002034743469346D34653400345634693451
:101170006534773420346C346F34673400344C3445
:101180006F346734733420343A3400346634613455
:1011900069346C346534643400343134303431347F
:1011A000303400344734313400344734323400347E
:1011B00047343334003447343434003443344C340B
:1011C000003444344C34003447344E340034433417
:1011D0004F340034433450340034473452340034F4
:1011E0005334543400340A168A11F4250A128A152D
:1011F000C23083120313CD003E080A168A11002262
:101200000A128A15C33083120313CD003F080A1651
:101210008A1100220A128A15C43083120313CD00EA
:101220003A300A168A1100220A128A15C530831232
:101230000313CD0040080A168A1100220A128A15EB
:10124000C63083120313CD0041080A168A1100220A
:101250000A128A15C73083120313CD003A300A16DA
:101260008A1100220A128A15C83083120313CD0096
:1012700042080A168A1100220A128A15C9308312FE
:101280000313CD0043080A168A1100220A128A1598
:101290000800003083120313C9000030C80000307A
:1012A000C7000030C6007508740473047204031983
:1012B0005A295B29A6290130CA0069290130C500D5
:1012C0000310F20DF30DF40DF50DC50B602901307F
:1012D000CA07F51F6C296D295E290130C50003106E
:1012E000C60DC70DC80DC90DC50B6F29750879024C
:1012F000031D842974087802031D8429730877026A
:10130000031D842972087602031C872988299729DE
:101310007208F6027308031C730FF7027408031CAB
:10132000740FF8027508031C750FF902461401309A
:101330000310F50CF40CF30CF20CFF3E031D98297E
:101340000130CA02031DA529A6296D294908F50007
:101350004808F4004708F3004608F200080083122A
:101360000313D2006B08031DB629B729B9290A3027
:10137000652A70304F06031DBE29BF29C7290F30CB
:10138000EB00BC010A168A11A5210A128A15373012
:10139000831203135206031DCE29CF29DE293C08F0
:1013A0000319D329D429DE290F30EB000130BC0208
:1013B0000A168A11A5210A128A15EF292F30520622
:1013C000031DE329E429EF2904303C020318E9292D
:1013D000EA29EF290F30EB000130BC07D82904308F
:1013E000831203133C020318F629F7292A2A8030B6
:1013F000CD002A300A168A1100220A128A15831299
:1014000003133C08D0005007AC3E8400831300084F
:10141000F600840A00088403F7008230F8000A16F8
:101420008A11A5230A128A15831203133C08D000DF
:101430005007AE3E840083130008F600840A0008BB
:101440008403F700C230F8000A168A11A5230A1295
:101450008A15622A04303C06031D2F2A302A622A8C
:101460003C08D0005007AA3E840083130008F60011
:10147000840A00088403F7008230F8000A168A11F3
:10148000A5230A128A15831203133C08D0005007C3
:10149000AC3E840083130008F600840A000884032D
:1014A000F700C230F8000A168A11A5230A128A151D
:1014B000C03083120313CD002A300A168A1100228D
:1014C0000A128A15831203133C080800FF308312A6
:1014D0000313D300FF30D400CF01660A031D742A22
:1014E000670A031D742A752A7F2A3630F300873075
:1014F000F4000A168A11D3220A128A15812BBF30F2
:10150000F3008830F4000A168A11D3220A128A15D1
:101510000A300A168A1175210A128A150030F30062
:101520008730F4000A168A11D3220A128A150A306B
:101530000A168A1175210A128A150D300A168A11A7
:1015400075210A128A15712B831203135308013E69
:10155000D10054080318013E003ED2000130D307E9
:101560000318D40A0030D407D501D6010A30F2009E
:101570008312031351080A168A11DA210A128A15F6
:10158000831203135507053ED0005508453E8400DD
:1015900050080A168A117A230A128A1583138000CA
:1015A000013083120313D5070318D60A0030D6077B
:1015B0005608803AFF0080307F02031DE12A0A307E
:1015C0005502031CE42AE52AB62A831203135308A2
:1015D000303E0A168A1175210A128A153230F3003C
:1015E0008730F4000A168A11D3220A128A15831250
:1015F000031345080A168A1175210A128A158312E7
:10160000031346080A168A1175210A128A153A3000
:101610000A168A1175210A128A15831203134708C4
:101620000A168A1175210A128A15831203134808B3
:101630000A168A1175210A128A153A300A168A1179
:1016400075210A128A158312031349080A168A1192
:1016500075210A128A15831203134A080A168A1181
:1016600075210A128A152F30F3008730F4000A160C
:101670008A11D3220A128A15831203134B080A1601
:101680008A1175210A128A15831203134C080A164F
:101690008A1175210A128A152930F3008730F40067
:1016A0000A168A11D3220A128A15831203134D08CF
:1016B0000A168A1175210A128A15831203134E081D
:1016C0000A168A1175210A128A150A300A168A1119
:1016D00075210A128A150D300A168A1175210A120F
:1016E0008A15831203135408803AF6006708803A7B
:1016F0007602031D7D2B66085302031C802B812B71
:10170000A42A080083120313E000DC01660A031D0B
:101710008D2B670A031D8D2B8E2BA52B2530F600F4
:101720008730F7008030F8000A168A11A5230A12C4
:101730008A154830F6008730F700C030F8000A16E6
:101740008A11A5230A128A15C12C20304F06031DC9
:10175000AA2BAB2BAD2BB301B40137306006031DB0
:10176000B22BB32BD52B3408803AD0006708803ACF
:101770005002031DBD2B660833020318C02BC12B7A
:10178000D52B013083120313B3070318B40A0030BA
:10179000B4072530F6008730F700C030F8000A168D
:1017A0008A11A5230A128A15FD2B2F3083120313E9
:1017B0006006031DDC2BDD2BFD2B3408803AFF0077
:1017C00080307F02031DE62B01303302031CE92B1E
:1017D000EA2BFD2BFF3083120313B3070318B40A5F
:1017E000FF30B4072530F6008730F700C030F8002E
:1017F0000A168A11A5230A128A15831203133408C4
:10180000DE003308DD00E101E2010A30F20083125C
:1018100003135D080A168A11DA210A128A15831247
:1018200003136107053EDF006108523E84005F0834
:101830000A168A117A230A128A158313800001304E
:1018400083120313E1070318E20A0030E20762087B
:10185000803AFF0080307F02031D302C0A30610285
:10186000031C332C342C052CC03083120313CD0001
:101870003308303E0A168A1100220A128A15C23035
:1018800083120313CD0052080A168A1100220A128D
:101890008A15C33083120313CD0053080A168A1128
:1018A00000220A128A15C43083120313CD003A3085
:1018B0000A168A1100220A128A15C53083120313F0
:1018C000CD0054080A168A1100220A128A15C63061
:1018D00083120313CD0055080A168A1100220A123A
:1018E0008A15C73083120313CD003A300A168A11C5
:1018F00000220A128A15C83083120313CD0056083D
:101900000A168A1100220A128A15C930831203139B
:10191000CD0057080A168A1100220A128A15CB3008
:1019200083120313CD0058080A168A1100220A12E6
:101930008A15CC3083120313CD0059080A168A1178
:1019400000220A128A15CE3083120313CD005A08E2
:101950000A168A1100220A128A15CF308312031345
:10196000CD005B080A168A1100220A128A1504307B
:1019700083120313D1003D30D000D00BBD2CD10B0E
:10198000BD2C080083120313D3000130AF070318E6
:10199000B00A0030B00706302F063004031DD12CEA
:1019A000D22CDC2CAF01B0013B080319D82CDA2C67
:1019B0000130DB2C0030BB0060304F06031DE12CF2
:1019C000E22CF82CC430F2003130F3008730F40000
:1019D0000430F5000030F6000A168A1121250A129B
:1019E0008A1583120313B101B201FB010530EB002C
:1019F0006B08031DFC2CFD2CFF2C0A305E2E7B088F
:101A00000319032D042D062D0D305E2E3208803A69
:101A1000FF0080307F02031D0F2D043031020318B8
:101A2000122D132D392D5930F6008730F7008030F4
:101A3000F8000A168A11A5230A128A1583120313C5
:101A40003B08031D242D252D2F2D3108C03ECD0030
:101A5000FF300A168A1100220A128A15D52D310884
:101A6000C03ECD0020300A168A1100220A128A15C3
:101A7000D52D831203133208803AFF0080307F0295
:101A8000031D442D04303102031C472D482DD52D54
:101A9000831203133208803AFF0080307F02031D57
:101AA000532D083031020318562D572DD52DAE3049
:101AB000F6008730F7008030F8000A168A11A52357
:101AC0000A128A15831203133B08031D682D692D22
:101AD000732D3108C03ECD00FF300A168A11002256
:101AE0000A128A15D52D3108C03ECD0020300A16C5
:101AF0008A1100220A128A15D52D3108C43E8400AD
:101B00003030831380003108C03ECD002A300A16E1
:101B10008A1100220A128A15013083120313B107B9
:101B20000318B20A0030B2070530EB00043031066A
:101B30003204031D9C2D9D2DDF2D2430F6008730AF
:101B4000F700C030F8000A168A11A5230A128A1578
:101B5000DF2D3108C43E840031308313800031080A
:101B6000C03ECD002A300A168A1100220A128A15B8
:101B7000013083120313B1070318B20A0030B20711
:101B80000530EB00043031063204031DC82DC92D89
:101B9000DF2D2430F6008730F700C030F8000A1639
:101BA0008A11A5230A128A15DF2D83120313530805
:101BB0002F3A03197D2D183A0319A92DDF2D08306E
:101BC0008312031331063204031DE72DE82D042D83
:101BD000C430F200C830F3000430F4000030F500E7
:101BE0000A168A11A9250A128A1572087304031DA0
:101BF000FA2DFB2D402E83160313CC01C830F700BD
:101C00000030F80000300A168A11F9220A128A15EB
:101C1000013083120313B1070318B20A0030B20770
:101C2000F20101300A168A114C220A128A158C30F0
:101C3000F6008730F7008030F8000A168A11A523D5
:101C40000A128A155430F6008830F700C230F800C6
:101C50000A168A11A5230A128A150130FB001A30D0
:101C600083120313D2005E30D1006D30D000D00B50
:101C7000372ED10B372ED20B372E3E2E0C305E2E48
:101C8000F20101300A168A114C220A128A15BF305D
:101C9000F6008730F7008030F8000A168A11A52375
:101CA0000A128A15C630F6008830F700C530F800F1
:101CB0000A168A11A5230A128A152D2E08008312EE
:101CC0000313D90060304F06031D672E682E772E50
:101CD0000330EA0083160313CD01CE01CF01D001FA
:101CE00083120313BD01FF30D9000530EB006B08F0
:101CF000031D7B2E7C2E7E2E0A30FF2F0230831296
:101D00000313D2004530D100A930D000D00B862E6D
:101D1000D10B862ED20B862E373083120313590631
:101D2000031D932E942EB02E04303D020318992EDD
:101D30009A2EB02E3D08CD3E8400313083138000B2
:101D40003D08C63ECD002A300A168A1100220A122A
:101D50008A15013083120313BD070530EB00CC2E2A
:101D60002F305906031DB52EB62ECC2E04303D0261
:101D70000318BB2EBC2ECC2E3D08CD3E8400303047
:101D8000831380003D08C63ECD002A300A168A1112
:101D900000220A128A15A92E04303D06031DD12EF9
:101DA000D22EFE2FDA01DB01831203135A08553EAF
:101DB00084005A080A168A117A230A128A15831394
:101DC0008000013083120313DA070318DB0A0030A6
:101DD000DB075B08803AFF0080307F02031DF22E94
:101DE00004305A02031CF52EF62ED42E5530F20084
:101DF000CD30F3000430F4000030F5000A168A11EB
:101E0000A9250A128A1572087304031D082F092FC9
:101E10000B2F0B30FF2F013083120313EA026A08E5
:101E2000031D132F142F9F2F8430B5000330B600ED
:101E30000A168A11A5210A128A15F2010C300A1617
:101E40008A114C220A128A15A53083120313D0007E
:101E5000D00B282F2B2F9D30F6008730F7008030D5
:101E6000F8000A168A11A5230A128A15D030F60046
:101E70008730F700C030F8000A168A11A5230A122D
:101E80008A15942F3C30F6000030F7003608F90030
:101E90003508F8000A168A1165250A128A1577088E
:101EA00083120313D4007608D300CB30CD000A3060
:101EB000F6000030F7005408F9005308F8000A163D
:101EC0008A1165250A128A157608303E0A168A118B
:101ED00000220A128A15CC3083120313CD000A3077
:101EE000C8000030C9003C30F6000030F70036086A
:101EF000F9003508F8000A168A1165250A128A15B4
:101F0000770883120313CB007608CA000A168A11D9
:101F10006E240A128A15831203134808303E0A16EB
:101F20008A1100220A128A15831203133508360417
:101F3000031D9B2F9C2F422F0330EA00D42F0A163B
:101F40008A11A5210A128A156A30F6008730F70037
:101F50008030F8000A168A11A5230A128A15C030AB
:101F600083120313CD006A08303E0A168A1100223C
:101F70000A128A153530F6008830F700C130F800B3
:101F80000A168A11A5230A128A15663083120313D2
:101F9000D2007630D100C030D000D00BCD2FD10B85
:101FA000CD2FD20BCD2F00000A168A11A5210A12BF
:101FB0008A151430F6008830F7008030F8000A16D1
:101FC0008A11A5230A128A1583120313BD01053055
:101FD000EB00F201C6300A168A114C220A128A1549
:101FE000F2010F300A168A114C220A128A15A53006
:101FF00083120313D000D00BFB2FFE2FFF300800FD
:10200000FF1B0A2883137F1883170008840A03190B
:10201000FF0A08007F087F398A000408840A031930
:04202000FF0A820031
:102264008316031306083F3886000800FF34FF3442
:10227400FF34FF3403340534831603139F1783128A
:1022840003131F14080064008001840A0406031960
:102294000034040646290A168A118B210A168A116B
:1022A40083160313111408000A168A118B210A16C7
:1022B4008A118316031311150800F2000A168A11F5
:1022C4008B210A168A1172088312031393000800E3
:1022D4000A168A1156210A168A110A168A114D21E4
:1022E4000A168A110800F200720883120313990077
:1022F4000C1E7D297E297A290C12080083160313EB
:102304008801091189100A168A11EC260A168A1105
:102314000800831603131419902991298B29110895
:102324001F39031D962997298B290800831203134B
:1023340012149214FA308316031392008C1483122D
:10234400031312150800F20101300A168A114C22F7
:102354000A168A110430F7003D30F600F60BB02956
:10236400F70BB029B529080000300A168A11242376
:102374000A168A11F6007F30F6057608F30000305D
:102384000A168A112E220A168A11080083120313D0
:102394001F151F19CE29CF29CB291E08F500831636
:1023A40003131E08F4007508F3007408F200080013
:1023B400F400F301741CDF29E029E2297208F30711
:1023C4000310F20D0310F40C7408031DEA29EB2921
:1023D400DC29730808007E088A007F0882000A1638
:1023E4008A11ED210A168A118000840A04087D06E8
:1023F40003190034FF0A0319FE0AF1298312031397
:10240400CE00F2014D080A168A114C220A168A11CE
:10241400F201F20A831203134E080A168A114C229F
:102424000A168A110800E4348834ED348834D2342E
:102434008834D5348834D8348834DB348834B6349A
:102444008834A33488347C34883445348834AD34B7
:1024540088344F344E340034F4000A168A114D2166
:102464000A168A11D0300A168A115F210A168A11B7
:1024740074080A168A115F210A168A1173080A164B
:102484008A115F210A168A110A168A1156210A1620
:102494008A110800F5007218502A542A8312031373
:1024A4000915572A83120313091175088800891422
:1024B400A630F300F30B5C2A000083120313891087
:1024C4001B30F4009E30F300F30B662AF40B662AEB
:1024D40000000800F2000A168A118B210A168A11DC
:1024E4008316031391150A168A118B210A168A1171
:1024F400831203131308F3007203031D822A832A31
:10250400872A8316031391168A2A831603139112BA
:102514001116730808007208F7007408F6007308AF
:10252400F500F30A0319F40A760883120313FF0073
:10253400750884000A168A1100200A168A11FF0001
:102544007708F70A84007F08831380000008031DBE
:10255400AC2AAD2A8F2A0800F601F701721CB32AAF
:10256400B42ABA2A7408F6070318F70A7508F70795
:1025740001300310F40DF50DFF3E031DBB2A01309D
:102584000310F30CF20CFF3E031DC22A72087304FD
:10259400031DCD2ACE2AB02A7708F3007608F2006C
:1025A4000800E82A7408FF00730884000A168A11D8
:1025B40000200A168A110A168A1175210A168A1130
:1025C4000130F3070318F40A0030F4077408831287
:1025D4000313FF00730884000A168A1100200A16E8
:1025E4008A11003A031DF72AF82AD42A0800F900B0
:1025F400132B7808FF00770884000A168A1100203C
:102604000A168A11F30079080A128A11D6260A16C4
:102614008A110130F7070318F80A0030F80701306F
:10262400F907780883120313FF00770884000A1659
:102634008A1100200A168A11003A031D222B232B2B
:10264400FB2A0800F4000A168A114D210A168A1181
:10265400D0300A168A115F210A168A1174080A16E4
:102664008A115F210A168A110A168A116A210A162A
:102674008A11D1300A168A115F210A168A11003094
:102684000A168A116C220A168A11F5000A168A1192
:1026940056210A168A1175080800F9006F30F600F1
:1026A4008830F7008230F8000A168A11A5230A162A
:1026B4008A119630F6008830F700C230F8000A1606
:1026C4008A11A5230A168A1140307906031D6B2B43
:1026D4006C2B782BFF3083120313E800FF30E900E2
:1026E400FF30E600FF30E7000C30792B0D30080096
:1026F400F4000A168A114D210A168A11A0300A160E
:102704008A115F210A168A1174080A168A115F2138
:102714000A168A110A168A116A210A168A11A13028
:102724000A168A115F210A168A1100300A168A11C4
:102734006C220A168A11F5000A168A1156210A1605
:102744008A1175080800F20178080A168A114C22C9
:102754000A168A11C32BF201F20A7708FF007608E1
:1027640084000A168A1100200A168A110A168A1190
:102774004C220A168A110130F6070318F70A0030B2
:10278400F707770883120313FF00760884000A16FC
:102794008A1100200A168A11003A031DD22BD32B6A
:1027A400AD2B080083120313981718164B08CF009B
:1027B4004C08D0004D08D1004E08D200043003105C
:1027C400CF0DD00DD10DD20DFF3E031DE12B5208CC
:1027D400F5005108F4005008F3004F08F2000130EE
:1027E400F9003130F8002D30F7000030F6000A12FD
:1027F4008A1549210A168A117208FF3E83160313AB
:10280400990008008312031394154B08CF004C0859
:10281400D0004D08D1004E08D20002300310CF0D75
:10282400D00DD10DD20DFF3E031D102C5208F50022
:102834005108F4005008F3004F08F2000130F90089
:102844003130F8002D30F7000030F6000A128A15F6
:1028540049210A168A117208FF3E83160313930056
:102864008312031394160800831203138C1C3B2C4D
:102874003C2C672C0130A9070318AA0A0030AA07C8
:10288400E2302906043003192A06031D4A2C4B2C76
:10289400662CA901AA01350836040319522C532CBD
:1028A400592C0130B5020030031CB603B6023508BA
:1028B4003604031D5E2C5F2C662C6B080319632CF5
:1028C400642C662C0130EB028C1071088A00700EA7
:1028D4008300FE0E7E0E0900831203134808490488
:1028E4000319752C762CA32C0130CC00822C0130DA
:1028F4000310C80DC90DFF3E031D7A2C0130CC070F
:10290400C91F852C862C792C49084B02031D8C2C5D
:1029140048084A02031C8F2C902C962C4808CA02A3
:102924004908031CCB03CB0201300310C90CC80CAB
:10293400FF3E031D972C0130CC02031DA22CA32CB7
:10294400862C4B08C9004A08C80008000A168A11D8
:1029540080210A168A110A168A113E210A168A1142
:10296400003083120313CE000130CD008630CC003A
:10297400A030CB000A168A1104240A168A110A16FA
:102984008A11B6210A168A110A168A1132210A16E8
:102994008A110A168A1198210A168A1100308312A4
:1029A4000313CE000030CD002530CC008030CB00A6
:1029B4000A168A11D4230A168A110B178B170800DA
:1029C400013083120313E8070318E90A0030E9070A
:1029D4000A3068066904031DF02CF12CF32CE8017D
:1029E400E9010A30F20068080A168A11DA210A1687
:1029F4008A11053E83120313C500B930F700003075
:102A0400F80045080A168A11F9220A168A11831257
:102A140003136708803AFF0080307F02031D142DE2
:102A2400093066020318172D182D202D013083124A
:102A34000313E6070318E70A0030E70708007208E3
:102A4400F900492D0130F5020030031CF603F602AB
:102A54007408F8007308F700F30A0319F40A7808F5
:102A640083120313FF00770884000A168A110020DA
:102A74000A168A11FF007908F90A84007F08831373
:102A840080000008031D472D482D492D562D75083B
:102A94007604031D4E2D4F2D242D562D79088400C8
:102AA400831380010130F9070130F5020030031C63
:102AB400F603F602750A031D632D760A031D632DC2
:102AC400642D502D080083120313C601C701760834
:102AD400770403196E2D6F2DA42D0130C5007B2DB5
:102AE40001300310F60DF70DFF3E031D732D013069
:102AF400C507F71F7E2D7F2D722D01300310C60DE3
:102B0400C70DFF3E031D802D77087902031D8C2D10
:102B140076087802031C8F2D902D972D7608F802E5
:102B24007708031CF903F902461401300310F70C6B
:102B3400F60CFF3E031D982D0130C502031DA32D85
:102B4400A42D7F2D4708F7004608F6000800013041
:102B5400F4020030031CF503F502740A031DB62DBC
:102B6400750A031DB62DB72DC42DF201F301F32D03
:102B74000130F2070130F3070130F4020030031C86
:102B8400F503F50272088400831300080319CB2DA2
:102B9400CC2DE52D7308840000080319D22DD32D04
:102BA400E52D740875040319D82DD92DE52D730866
:102BB40084000008F60072088400000876060319F1
:102BC400E42DE52DBA2D730884000008F600720880
:102BD40084000008F70076087702F200F301031C72
:102BE400F303080002300A168A1124230A168A11F4
:102BF40083120313A60001300A168A1124230A162D
:102C04008A1183120313A70000300A168A112423A1
:102C14000A168A1183120313A8002608F60004304A
:102C24000310F60CFF3E031D122E76080339303EC6
:102C3400BE0026080F39303EBF002708F6000430D6
:102C44000310F60CFF3E031D222E76080739303E92
:102C5400C00027080F39303EC1002808F6000430B0
:102C64000310F60CFF3E031D322E76080739303E62
:102C7400C20028080F39303EC300C40108007B306D
:102C8400F6008730F7008030F8000A168A11A52371
:102C94000A168A110A128A15F3200A168A11831257
:102CA40003134F08F6000030F700CB30F8000A1683
:102CB4008A11A5230A168A11CE3083120313CD007C
:102CC4000A30F2000030F3005008D100D20151085C
:102CD400F4005208F5000A168A119D270A168A1173
:102CE4007208303E0A168A1100220A168A11CF3061
:102CF40083120313CD000A30F2000030F3005008B1
:102D0400D100D2015108F4005208F5000A168A11C4
:102D140095260A168A117208303E0A168A11002274
:102D24000A168A110800F701F51F992E9A2EA12E72
:102D3400F409F509F40A0319F50A0130F700F31F41
:102D4400A42EA52EAA2EF209F309F20A0319F30AF6
:102D5400720873040319AF2EB02EDD2E0130F60075
:102D6400BC2E01300310F20DF30DFF3E031DB42EF3
:102D74000130F607F31FBF2EC02EB32E7308750261
:102D8400031DC62E72087402031CC92ECA2ED02E2F
:102D94007208F4027308031CF503F50201300310F2
:102DA400F30CF20CFF3E031DD12E0130F602031D7D
:102DB400DC2EDD2EC02E77080319E12EE22EE72E3D
:102DC400F409F509F40A0319F50A7508F3007408FF
:102DD400F2000800C330F700CD30F600F60BF02EF9
:102DE400F70BF02EF20133300A168A114C220A1620
:102DF4008A111B30F7009E30F600F60BFF2EF70BFE
:102E0400FF2E0000F20133300A168A114C220A16F2
:102E14008A11A630F600F60B0D2F0000F2013330B4
:102E24000A168A114C220A168A11182F192F00002B
:102E3400F20138300A168A114C220A168A11A63079
:102E4400F600F60B232F0000F20101300A168A1156
:102E54004C220A168A110430F7003D30F600F60BB6
:102E6400312FF70B312F362FF2010C300A168A114D
:102E74004C220A168A11A630F600F60B3F2F0000EA
:102E840008000A168A11F4250A168A11B930F200CC
:102E94003E30F3000030F4000630F5000030F60058
:102EA4000A168A1121250A168A11BF30F2008312EC
:102EB40003134608F3004708F4000230F50000301D
:102EC400F6000A168A1121250A168A110A30F20020
:102ED4000030F300831203134808C900CA014908EB
:102EE400F4004A08F5000A168A119D270A168A1169
:102EF4007208303E83160313C1000A30F20000301A
:102F0400F300831203134808C900CA014908F400F6
:102F14004A08F5000A168A1195260A168A117208BB
:102F2400303E83160313C200C3010A168A11E22439
:102F34000A168A110800F701F31FA12FA22FA92F47
:102F4400F209F309F20A0319F30A0130F700F51F35
:102F5400AC2FAD2FB42FF409F509F40A0319F50ABF
:102F64000130F706F801F901720873040319BB2F45
:102F7400BC2FF12F0130F600C82F01300310F20DE1
:102F8400F30DFF3E031DC02F0130F607F31FCB2FB7
:102F9400CC2FBF2F01300310F80DF90DFF3E031D98
:102FA400CD2F73087502031DD92F72087402031CF8
:102FB400DC2FDD2FE42F7208F4027308031CF503E1
:102FC400F502781401300310F30CF20CFF3E031DDC
:102FD400E52F0130F602031DF02FF12FCC2F7708D7
:102FE4000319F52FF62FFB2FF809F909F80A03192D
:0C2FF400F90A7908F3007808F2000800E0
:08400000FF3FFF3FFF3FFF3FC0
:02400E00FB3F76
:00000001FF
